:020000040800F2
:10000000602600206D090008CD090008CD09000810
:10001000CD090008CD090008CD0900080000000046
:10002000000000000000000000000000CD090008F2
:10003000CD09000800000000CD090008CD09000826
:10004000CD090008CD090008C51E00080000000009
:1000500000000000CD090008CD090008CD09000806
:10006000CD09000800000000CD090008CD090008F6
:10007000CD09000800000000CD090008CD090008E6
:10008000CD090008F903000800000000CD090008B0
:10009000CD09000800000000000000000000000082
:1000A000000000000000000000000000CD09000872
:1000B000CD090008CD090008CD090008CD090008C8
:1000C00010B5054C237833B9044B13B10448AFF392
:1000D00000800123237010BD980400200000000060
:1000E0009C230008084B10B51BB108490848AFF322
:1000F00000800848036803B910BD074B002BFBD0F4
:10010000BDE81040184700BF000000009C0400201C
:100110009C230008940400200000000080B483B0F9
:1001200000AF0346FB71084997F907305B09FA797C
:1001300002F01F02012000FA02F241F8232000BF62
:100140000C37BD4680BC704700E100E090B486B03B
:1001500000AF786039603B681B783B733B685B7825
:100160007B733B689B78BB733B68DB78FB733B68B6
:100170001B793B743B685B797B747B7C012B0FD1D3
:100180003B689B79BB743B68DB79FB743B681B7AEB
:100190007B753B685B7ABB753B689B7AFB7514E0AB
:1001A0007B7C022B11D13B689B79BB743B68DB796C
:1001B000FB743B681B7A3B753B685B7A7B753B68DD
:1001C0009B7ABB753B68DB7AFB757B681C4607F145
:1001D0000C0307CB20606160A26078681837BD46C9
:1001E00090BC704780B489B000AFF860384680E8B2
:1001F0000E003A78FB681A70FB6801337A781A703F
:10020000FB6802333A791A70FB6803333A79D243B8
:10021000D2B21A70FB680433BA781A70FB680533DF
:1002200009221A70FB68063389221A70FB680733AB
:1002300097F82F10FA79914214BF01220022D2B20E
:100240001A700023FB830023BB610AE0BB69FA68D4
:1002500013441B789AB2FB8B1344FB83BB690133B5
:10026000BB61BB69072BF1DDFB8BFB75FB8B1B0AAD
:100270009BB2BB75FB680833FA7D1A70FB680933C3
:10028000BA7D1A70FB680A33FA7A1A7000BF2437F5
:10029000BD4680BC704700BF90B589B004AFF86020
:1002A000384680E80E00124B124A10685168926876
:1002B000186059609A600F4B1C463B4607CB206084
:1002C0006160A2600B4C0A4A6B46106851689268E4
:1002D00007C32368194663681A46A368184603468D
:1002E000F868FFF77FFF00BF1437BD4690BD00BF21
:1002F000600500206C05002080B500AF01214FF0A3
:10030000807000F035FE0F4B4FF4E0521A800D4B19
:1003100001229A700B4B00221A720A4B01229A7228
:10032000084B01225A72074B0122DA70054B00225A
:100330001A71044B00229A710249034800F05AFDD9
:1003400000BF80BD8005002000000C4080B592B049
:1003500000AF01214FF4003000F00AFE00F026FE4D
:1003600007F12C03184600F07BFE0023FB620023FC
:100370003B634FF400337B634FF48023BB634FF444
:100380000023FB6300233B6401237B6407F12C0300
:10039000184600F035FE3B46184600F0CFFE00231D
:1003A0003B6008237B600023BB601F23FB600023AE
:1003B0003B6100237B6100233B8300237B8300237D
:1003C000FB6100233B624FF410437B620723BB6257
:1003D0003B46184600F062FE0121042000F020FF99
:1003E000012000F0D9FE1120FFF798FE00BF48372A
:1003F000BD4680BD0000000090B583B000AF002373
:100400003B60042000F02EFF0346012B02D100F0D8
:10041000EFFE78607B68A3F2A4630F4AA2FB03237C
:100420009B08184601F096FE09A3D3E9002301F0CA
:1004300055FD03460C461846214601F001FF0346D0
:100440003B6000BF0C37BD4690BD00BFAFF30080DE
:1004500025404D2D5BEBF53FABAAAAAA80B400AFB7
:10046000084B4FF416521A60064B00221A71054BC6
:1004700000225A71034B08229A7100BFBD4680BC0E
:10048000704700BF2C05002080B500AF012104207B
:1004900000F06EFD0F4B03221A600E4B0B225A60C8
:1004A0000D4B10229A600C4B20225A600A4B1022EE
:1004B0001A600949074801F095FA1F2000F0A2F9D7
:1004C00001F0C8FA0220FFF729FE00F0D5FA00BFBC
:1004D00080BD00BF780500205405002080B400AF27
:1004E000134A134B9B6843F00103936000BF104B0A
:1004F0001B6803F00403002BF9D00D4A0C4B5B681A
:1005000043F4106353600A4A094B5B6843F00403E9
:10051000536000BF064B1B6803F00203002BF9D0A9
:10052000034B4FF48372DA6000BFBD4680BC704756
:100530000000024080B500AF01214FF4800000F0C0
:1005400017FD0A4B40221A80084B01229A70074B74
:1005500000221A72054B01229A72044B02225A722F
:100560000249034800F046FC00BF80BD8005002022
:1005700000000B4080B500AFFFF7B0FFFFF7DAFFD8
:10058000FFF7BAFEFFF7E2FEFFF77EFF012201212F
:10059000044800F01FFA00F06FFAFFF75FFF00F069
:1005A00019FEFEE78C05002080B58AB000AF7860A8
:1005B000396007F118030F491846FFF7C7FD07F127
:1005C0000C0300221A605A60C3F8072007F10C00E0
:1005D00007F118030ECBFFF75FFE07F10C030B21A9
:1005E000184600F029FA0346FB84FB8C184628378E
:1005F000BD4680BD8C05002080B485B000AF78601A
:10060000174B1B69FB60FB6843F48073FB607B68DE
:100610001B68FA681343FB60FB6843F00403FB604C
:100620000F4AFB6813610E4B5B68FB60FB6843F08D
:100630000103FB607B685B681B01FA681343FB6086
:10064000074AFB68536000BF054B1B6803F00103BA
:10065000002BF9D000BF1437BD4680BC704700BFE7
:100660000000024080B582B000AF022000F012F816
:1006700000237B6002E07B6801337B607B68B3F51D
:100680007A7FF8D34FF4003000F004F800BF083749
:10069000BD4680BD80B485B000AF78600B4BD3F809
:1006A0008033FB607B689BB2FA681343FB607B6816
:1006B0001B0CDB43FA681340FB60044AFB68C2F87A
:1006C000803300BF1437BD4680BC70470000014036
:1006D00080B483B000AF0346FB71054AFB79103349
:1006E0001B0113441B6818460C37BD4680BC70477D
:1006F0000000014080B485B000AF03463960FB7153
:100700000E4AFB7910331B0113441B68FB603B68E6
:100710009BB2FA681343FB603B681B0CDB43FA682F
:100720001340FB60054AFB7910331B011344FA6840
:100730001A6000BF1437BD4680BC704700000140FE
:1007400080B483B000AF0346FB71064AFB791033D7
:100750001B01134404331B6818460C37BD4680BC8C
:10076000704700BF0000014080B483B000AF034673
:10077000FB71064AFB791B01134403F584731B6864
:1007800018460C37BD4680BC704700BF00000140D2
:1007900080B485B000AF78600B4BD3F84031FB607C
:1007A0007B689BB2FA681343FB607B681B0CDB43DE
:1007B000FA681340FB60044AFB68C2F8403100BF8E
:1007C0001437BD4680BC70470000014080B400AFC4
:1007D000034BD3F848311846BD4680BC704700BF74
:1007E0000000014080B483B000AF7860044A7B68A9
:1007F000C2F8483100BF0C37BD4680BC704700BF0F
:100800000000014080B485B000AF78600B4BD3F896
:100810004C31FB607B689BB2FA681343FB607B68DA
:100820001B0CDB43FA681340FB60044AFB68C2F808
:100830004C3100BF1437BD4680BC704700000140FA
:1008400080B483B000AF7860044A7B68C2F850314E
:1008500000BF0C37BD4680BC704700BF00000140A0
:1008600080B483B000AF0346FB71054AFB790333C4
:10087000DB0113441B6818460C37BD4680BC70472B
:100880000000014080B483B000AF0346FB71064A0C
:10089000FB79DB01134403F5C6731B6818460C375C
:1008A000BD4680BC704700BF0000014080B483B0EB
:1008B00000AF03463960FB71064AFB79DB01134444
:1008C00003F5C8733A681A6000BF0C37BD4680BC98
:1008D000704700BF0000014080B483B000AF034602
:1008E0003960FB71064AFB79DB01134403F5E073C1
:1008F0003A681A6000BF0C37BD4680BC704700BF25
:100900000000014080B483B000AF03463960FB7142
:10091000064AFB79DB01134403F5E8733A681A6071
:1009200000BF0C37BD4680BC704700BF00000140CF
:1009300080B485B000AF0346FB710B4AFB791033DE
:100940001B0113441B68FB60FB6883F00403FB601E
:10095000054AFB7910331B011344FA681A6000BF83
:100960001437BD4680BC70470000014080B582B09E
:1009700000AF114B7B60114B3B6007E03B681A1DD9
:100980003A607A68111D796012681A603B680C4AF7
:100990009342F3D30B480C494FF000028842B8BF92
:1009A00040F8042BFADB00F0FFF9FFF7E3FD00BF8E
:1009B0000837BD4680BD00BF9C2300080000002012
:1009C00098040020980400205C06002080B400AF4A
:1009D000FEE700BF80B584B000AFF860B960134691
:1009E000FB71B968F86800F013F8084B00221A810F
:1009F000FB79002B01D0002201E04FF40072034B81
:100A00005A81002318461037BD4680BD34050020AA
:100A100080B483B000AF78603960064A7B681360A9
:100A2000044A3B685360002318460C37BD4680BC1F
:100A3000704700BF3405002080B584B000AF7860F7
:100A400039600B4B1B89FB81FB89002B0BD1084BB9
:100A50004FF400721A81074B3A687968012000F060
:100A6000F3FC0346FB81FB8918461037BD4680BD69
:100A7000340500202D0C000880B582B000AF00F0D6
:100A8000F7FF0346FB80FB88002B1DD100220521C8
:100A9000012000F035FC00220521022000F030FC8E
:100AA00000220121032000F02BFC0A4B5B899BB242
:100AB000002B09D1074B1968064B5A68064B0320D7
:100AC00000F0F8FC0346FB80FB8818460837BD465B
:100AD00080BD00BF34050020510C000880B586B0F1
:100AE00000AF0346FB800B46BB8013467B80002390
:100AF0007B610023FB81FB88DBB2002B02D001234A
:100B0000FB8113E0FB881B0A9BB2012B02D0022B56
:100B100005D009E0104B7B6112233B6106E00F4BCF
:100B20007B6143233B6101E00123FB81FB89002BB7
:100B30000DD17A883B699A4201D27B883B61084B90
:100B40003A697969002000F07FFC0346FB81FB894C
:100B500018461837BD4680BD000000201400002054
:100B6000ED1D000880B582B000AF0023FB802B4B49
:100B70005B88BB80294B9B887B80284BDB883B8034
:100B8000264B5B78202B02D0212B0FD022E03B8814
:100B9000072B08D13A88224B2249002000F08AFC1A
:100BA0000346FB801AE00223FB8017E03B88072BFB
:100BB0000DD10123FB80FB88002B0ED13A881A4B04
:100BC0001849002000F040FC0346FB8005E00223AA
:100BD000FB8002E00123FB8000E000BFFB88002BCC
:100BE00017D13B88002B14D10C4B1B785BB2002B28
:100BF00007DA002300220021002000F05BFC0346FE
:100C000006E0002300220021002000F01DFC034626
:100C1000FB80FB8818460837BD4680BDA405002030
:100C2000A90C000840050020ED1D000880B485B027
:100C300000AF0346B9607A60FB73044B00221A814F
:100C4000002318461437BD4680BC70473405002089
:100C500080B586B000AF0346B9607A60FB737968EF
:100C6000B868FFF7A1FC0346FB82FB8A002B03D088
:100C70000B4B4FF400725A81094B5B899BB2002BDE
:100C800009D1074B1968064B5A68064B032000F040
:100C900011FC034600E0002318461837BD4680BD0E
:100CA00034050020510C000880B586B000AF034623
:100CB000B9607A60FB730C4B5B78202B02D1012367
:100CC000FB8201E00223FB82FB8A002B07D1F87B29
:100CD00000230022002100F0B7FB034600E0FB8A5E
:100CE00018461837BD4680BDA405002080B485B0E5
:100CF00000AF2A4BDB6803F00203002B02D0284B25
:100D0000FB6001E0264BFB60244BDB6803F0010332
:100D1000002B02D0FB685B08FB60FB68BB601F4BCD
:100D2000DB6803F00403002B0BD01C4B5B681B0A31
:100D300003F00F0301337B60BB687A6802FB03F3A7
:100D4000BB60164BDB681B0A03F00303012B08D0C2
:100D5000012B02D3022B12D016E0124B104A1A605C
:100D600017E00E4BDB681B0903F00F030133BA6871
:100D7000B2FBF3F33B600B4A3B68136009E0094B9D
:100D80004FF400421A6004E0064B49F640421A60F4
:100D900000BF00BF1437BD4680BC70470000024052
:100DA00000127A005800002080B500AF0F4B104AA7
:100DB000DA610E4BDB680D4B0022DA600B4B5B688F
:100DC0000A4B00225A60094B9B68084B00229A602C
:100DD000064B1B69054B00221A61044B5B69034BF0
:100DE00000225A61FFF782FF00BF80BD0000024071
:100DF0001000000880B48FB000AF786039607B6865
:100E00005B687B637B689B683B637B68DB68FB623A
:100E10007B681B69BB627B685B697B627B689B69E3
:100E20003B627B68DB69FB6100237B6101233B61E3
:100E30000323FB604FF00113BB603B681B88BB6161
:100E400079E0BB6903F00103002B65D03B69DA430D
:100E50007B6B13403A68927811467A6901FA02F284
:100E600013437B63FB68DA433B6B13403A68127AA7
:100E700011467A69520001FA02F213433B633B695F
:100E8000DA43FB6A13403A68927A11467A6901FAAA
:100E900002F21343FB62BB68DA43BB6A13403A6851
:100EA000D27811467A69103201FA02F213433A6895
:100EB000127911467A6901FA02F21343BB62BB68E8
:100EC000DA437B6A13403A68527911467A691032E4
:100ED00001FA02F213433A68927911467A6901FAEB
:100EE00002F213437B62FB68DA433B6A13403A68C1
:100EF000527A11467A69520001FA02F213433B62B8
:100F00003B69DA43FB6913403A68D27911467A6942
:100F100001FA02F21343FB613B695B003B61FB6832
:100F20009B00FB60BB685B00BB607B6901337B613E
:100F3000BB695B08BB61BB69002B82D17B687A6BA4
:100F40005A607B683A6B9A607B68FA6ADA607B6801
:100F5000BA6A1A617B687A6A5A617B683A6A9A61EE
:100F60007B68FA69DA6100BF3C37BD4680BC7047D8
:100F700080B483B000AF78600B46FB70FB78002B29
:100F800006D00949084BDA697B681343CB6106E058
:100F90000549054BDA697B68DB431340CB6100BF31
:100FA0000C37BD4680BC70470000024080B400AFE3
:100FB000124B00221A60114B00225A600F4B002284
:100FC0009A600E4B0022DA600C4B00221A610B4B28
:100FD00000225A61094B9B69084BDB69074B0022D1
:100FE0001A62064B00225A62044B00229A62034B9B
:100FF0000022DA6200BFBD4680BC70470080084016
:1010000080B485B000AF78607B681A687B685B68E5
:101010001B071A447B689B681A447B68DB681A4488
:101020007B681B691A447B685B691A447B689B690F
:101030005B051344FB60084BBB600849074B1A680B
:10104000BB68DB431A40FB6813440B6000BF1437D6
:10105000BD4680BC704700BF0000FFF10080084023
:1010600080B483B000AF78607B6800221A607B6830
:1010700000225A607B6800229A607B680022DA6056
:101080007B6800221A617B6800225A617B6800221B
:101090009A6100BF0C37BD4680BC704780B485B0F4
:1010A00000AF7860234B1B68FB60FA68224B13404B
:1010B000FB607B681A687B685B681A447B689B6886
:1010C0001A447B68DB681B011A447B685B691A441D
:1010D0007B68DB691A447B685B6A1A447B689B6A9D
:1010E0005B061344FA681344FB60124B5B68BB60F9
:1010F000BB6823F40033BB607B681B6A5B04BA687F
:101100001344BB600B4AFB6813600A4ABB68536018
:10111000084A7B681B8B1361064A7B685B8B936074
:10112000044A7B681B69936200BF1437BD4680BCCC
:10113000704700BF008008400300FFF180B483B017
:1011400000AF78607B6800221A607B6800225A60DA
:101150007B6800229A607B680022DA607B6800224C
:101160001A617B6800225A617B6800221A837B68BF
:1011700000225A837B680022DA617B6800221A62AF
:101180007B6800225A627B6800229A6200BF0C379B
:10119000BD4680BC704700BF80B485B000AF034639
:1011A000FB710B4B1B68FB60FB79002B04D0FB68C9
:1011B00043F00103FB6003E0FB6823F00103FB60E5
:1011C000034AFB68136000BF1437BD4680BC7047FC
:1011D0000080084080B400AF044A044B1B6843F011
:1011E0000203136000BFBD4680BC7047008008400A
:1011F00080B400AF024B9B691846BD4680BC704767
:101200000080084080B400AF044B1A6A034B5B6A4D
:101210001B0413441846BD4680BC7047008008403C
:1012200080B485B000AF78600B46FB700C4B1B6A36
:10123000FB60FB78002B05D07B689B00FA681343AA
:10124000FB6005E07B689B00DB43FA681340FB60B2
:10125000034AFB68136200BF1437BD4680BC704769
:101260000080084080B584B000AF7860FFF7CAFF07
:10127000B860BB689A087B681340BA681340BB60CB
:10128000BB68002B02D10023FB7301E00123FB7339
:10129000FB7B18461037BD4680BD00BF80B483B0CD
:1012A00000AF0346FB71084997F907305B09FA79EB
:1012B00002F01F02012000FA02F241F8232000BFD1
:1012C0000C37BD4680BC704700E100E080B483B0BD
:1012D00000AF0346FB71094997F907305B09FA79BA
:1012E00002F01F02012000FA02F2203341F823200D
:1012F00000BF0C37BD4680BC704700BF00E100E076
:1013000080B586B000AF0346B9607A60FB73FB7BA3
:101310002C2202FB03F3184A13447B617B690022F1
:101320005A607B6900229A607B6900221A617B699E
:101330000022DA607B6900225A617B690022DA614F
:101340007B6900221A627B6900225A627B697A6893
:101350009A627B6900225A707B6900221A707B694D
:1013600000221A76FB7BB9681846FFF7C3F9002301
:1013700018461837BD4680BDAC05002080B584B046
:1013800000AF0346FB71FB792C2202FB03F3134AE7
:101390001344BB604FF40023FB60BB685B7E002BF3
:1013A00003D1BB689B7E002B07D0BB6801221A705B
:1013B000FB6843F00203FB6002E0BB6800221A7086
:1013C000BB6800225A70FB79F968184600F0ECFA05
:1013D000002318461037BD4680BD00BFAC05002075
:1013E00080B584B000AF03460A46FB711346BB715B
:1013F000FB792C2202FB03F3124A1344BB60002347
:10140000FB60BB79012B04D1FB79002B01D10123B7
:1014100014E0BB79012B03D0BB689B7E002B07D067
:10142000BB68BA795A70BB6805221A700A23FB6040
:10143000FB79F968184600F0B7FA00231846103710
:10144000BD4680BDAC05002080B586B000AFB96058
:101450007A603B600346FB73FB7B2C2202FB03F3A9
:10146000134A13447B617B699B7E002B01D00223CE
:1014700000E00123FB747B69BA685A607B697A6873
:101480009A607B6920221A617B690022DA607B699D
:101490003A68DA617B6902221A70FA7CFB7B11469A
:1014A000184600F02FFA002318461837BD4680BDB5
:1014B000AC05002080B586B000AFB9607A603B60B3
:1014C0000346FB73FB7B2C2202FB03F30E4A1344FF
:1014D0007B617B69BA685A607B697A689A607B69CC
:1014E00000221A617B690022DA607B693A681A621D
:1014F0007B6901225A76FB7B1846FFF73FFF0023EA
:1015000018461837BD4680BDAC05002080B586B0B2
:1015100000AF0346B9607A60FB73FB7B2C2202FBB1
:1015200003F3124A13447B617B69BA685A617B6991
:1015300000229A607B6900221A617B690022DA60CE
:101540007B697A685A627B68002B14BF01230023F1
:10155000DBB21A467B699A76FB7B1846FFF70EFFD3
:10156000002318461837BD4680BD00BFAC050020DB
:1015700090B58BB000AF03463960FB71002387F84C
:1015800027300023BB84FB791846FFF7D9F8F861B0
:10159000FB791846FFF7E8F8034603F00303BB6145
:1015A000FB791846FFF794F87861FB792C2202FB4F
:1015B00003F39F4A13443B613B6803F00103002B94
:1015C00002D03B6901221A763B691B78052B00F299
:1015D0008E8101A252F823F0F1150008F5150008DC
:1015E0005B1600084717000811180008B918000812
:1015F000002382E17B6903F00203002B40F070813D
:101600003B691B7E002B00F06B81BB69022B0DD167
:101610003B695B7E002B09D03B6903221A703B6952
:1016200000225A76012387F8273015E0BB69002B8A
:101630000AD13B699B7E002B06D03B6904221A70BD
:10164000012387F8273007E00123BB84FB790021C1
:101650001846FFF7C5FE43E142E17B6903F0020350
:10166000002B41D13B691B7E002B3DD0BB69012B78
:101670003AD1FB6903F04003002B35D03B69DA68AF
:101680003B691B691A443B69DA603B69DA683B696C
:101690009B689A4222D33B6900221A703B69DB693E
:1016A000002B09D03B69DB693A6951683A69926855
:1016B000F87998470346BB84BB8C002B08D13B6963
:1016C0001B78002B3DD1FB791846FFF757FE38E019
:1016D000FB7900211846FFF783FE32E0FB790121F8
:1016E000184600F00FF92CE0FB6903F00F03002B04
:1016F00000F0F8803B6900221A703B699B6A002B5E
:1017000008D03B699C6AF8797B69BA69F969A04796
:101710000346BB84BB8C002B0DD13B691B78002B8F
:1017200040F0E0803B6902221A70FB7900211846E4
:1017300000F0E8F8D6E0FB7900211846FFF750FEEC
:10174000D0E000BFCEE07B6903F00203002B40F045
:10175000CB803B691B7E002B00F0C680002387F8FE
:101760002730FB791846FFF78DF8F86000233B62BD
:1017700010E03B695A683B69D9683B6A0B44D4184E
:10178000FB791846FFF76CF80346DBB223703B6A1F
:1017900001333B623A6AFB689A42EAD3FB79012142
:1017A0001846FFF783F83B69DA68FB681A443B691F
:1017B000DA603B69DA683B699B689A4222D33B69ED
:1017C00000221A703B691B6A002B09D03B691B6A17
:1017D0003A6951683A69D268F87998470346BB84F8
:1017E000BB8C002B08D13B691B78002B7CD1FB798B
:1017F0001846FFF7C3FD77E0FB7900211846FFF795
:10180000EFFD71E0FB790221184600F0CDF86BE0A6
:101810003B691B7E002B4BD0FB791846FFF732F853
:10182000F860FB68082B37D100233B6210E000BF53
:10183000AC0500203B695A693B6AD418FB7918460D
:10184000FFF70EF80346DBB223703B6A01333B62BD
:101850003A6AFB689A42EDD3FB7901211846FFF7FB
:1018600025F83B695B6A3A695169FA7910469847ED
:101870000346BB84BB8C002B08D13B691B78042B2F
:1018800016D1FB791846FFF779FD11E0FB790021AD
:101890001846FFF7A5FD0BE0FB7901211846FFF77D
:1018A00005F80123BB84FB7900211846FFF798FD5A
:1018B000002387F827301AE07B6903F00203002B2E
:1018C00014D13B695B78012B05D1FB7901211846C6
:1018D000FFF786FD0AE0FB791846FFF74FFD05E0AC
:1018E00000BF04E000BF02E000BF00E000BF97F8C7
:1018F0002730002B7FF468AEBB8C18462C37BD46D2
:1019000090BD00BF80B586B000AF03460A46FB71AC
:101910001346BB71FB792C2202FB03F3214A1344CB
:101920003B61FB7901211846FEF7ECFFBB79012BE7
:1019300003D0022B06D0002B0AE0FB791846FEF7F5
:10194000F7FF05E0FB7904211846FEF7D3FE00BF40
:101950003B699A683B69D9683B691B690B449342B0
:1019600028BF1346FB603B69DB687B610DE03B6988
:101970005A687B6913441B781A46FB79114618464E
:10198000FEF7AAFF7B6901337B617A69FB689A42A3
:10199000EDD3FB790221184600F006F800BF183796
:1019A000BD4680BDAC05002080B584B000AF0346C5
:1019B0003960FB71FB792C2202FB03F3084A1344C4
:1019C000FB601F20FEF70EFFFB6800221A76FB79F2
:1019D00039681846FEF78EFE00BF1037BD4680BD41
:1019E000AC05002080B582B000AF786039607868BF
:1019F000FEF702FEFEF736FE4FF48030FEF74AFE99
:101A00003B681B681846FEF745FE3B685A683B6812
:101A10009B68134343F001031846FEF7B9FE00220A
:101A200005210020FFF76CFC074A08490020FFF75A
:101A30006DFD074B00221A70054B00229A600023AF
:101A400018460837BD4680BD891A0008A405002045
:101A50009805002080B500AF0C20FEF71BFE034B5D
:101A600002221A700023184680BD00BF980500208E
:101A700080B400AF034B03221A7000231846BD4602
:101A800080BC70479805002080B588B000AF034641
:101A90003960FB710023FB833B681B7803F0600314
:101AA000FB753B681B7823F07F03BB75FB7D202B08
:101AB00000F04A81402B00F04C81002B40F04C811B
:101AC0000023BB613B685B88BB823B689B887B8251
:101AD0003B68DB883B823B681B7803F01F03FB738A
:101AE000FB7B032B02D90223FB8339E13B685B7844
:101AF0000C2B00F2058101A252F823F0311B0008E3
:101B0000AF1B0008011D0008E11B0008011D0008B3
:101B1000131C0008231C0008351C00083B1C00088F
:101B2000631C00088D1C0008B31C0008D71C0008AB
:101B3000BB7D802B0CD18D4B1B78042B0BD1FB7BF9
:101B4000012B05D0FB7B022B05D17B8A032B02D90D
:101B50000123FB83D7E00023FB83FB8B002B40F0AA
:101B6000D280FB7B012B07D0022B09D0002B12D196
:101B70007F4B00221A700EE07D4B00221A700AE0A3
:101B80007B8A7C4A2C2101FB03F3134401331A782E
:101B9000774B1A7000BF764B00225A70F8790023F9
:101BA00002227349FFF750FC0346FB83ABE06F4B07
:101BB0001B78042B0BD1FB7B012B05D0FB7B022B6D
:101BC00005D17B8A032B02D90123FB83A0E07A8A0B
:101BD000B98AFB7B184600F0D1F80346FB8397E0F7
:101BE000624B1B78042B0BD1FB7B012B05D0FB7BBD
:101BF000022B05D17B8A032B02D90123FB8387E0CB
:101C00007A8AB98AFB7B184600F0D4F80346FB8336
:101C10007EE00023FB83BB8A544A9360564BBB6132
:101C200076E03A8A798ABB8A1846FEF757FF034660
:101C3000FB836DE00123FB836AE04C4B1B78042B94
:101C400003D14B4B00221A7002E0494B01221A705B
:101C5000F879002301224649FFF7F6FB0346FB8390
:101C600056E0BB8A002B03D1404B04221A704CE093
:101C7000BB8A012B14BF01230023DBB2FB83FB8B48
:101C8000002B42D1394B05221A703EE0374B1B78AE
:101C9000042B02D10123FB833AE0354B00221A705A
:101CA000F879002301223249FFF7CEFB0346FB837C
:101CB0002EE02E4B1B78042B02D10123FB8327E05F
:101CC0007B8A002B02D1BB8A002B01D0012300E0CC
:101CD0000023FB831CE0254B1B78042B02D101233E
:101CE000FB8314E00123FB83FB8B002B0FD1F879DE
:101CF000002302221E49FFF7A7FB0346FB8306E0F1
:101D00000223FB8304E000BF02E000BF00E000BF4D
:101D1000FB8B002B23D13B8A002B20D13B681B7807
:101D20005BB2002B07DAF879BB6900220021FFF7CC
:101D3000C1FB034606E0F879BB6900220021FFF7EA
:101D400083FB0346FB830AE0FEF70CFF0346FB839D
:101D500006E00123FB8303E00223FB8300E000BFD6
:101D6000FB8B18462037BD4680BD00BF980500207C
:101D700048050020AC050020111E000880B582B087
:101D800000AF0346FB710B46BB8013467B80FB799B
:101D9000022B09D1BB88002B06D17B88DBB2184609
:101DA000FFF7ECFA034600E0012318460837BD466A
:101DB00080BD00BF80B582B000AF0346FB710B460B
:101DC000BB8013467B80FB79022B0AD1BB88002B9A
:101DD00007D17B88DBB201211846FFF701FB0346E0
:101DE00000E0012318460837BD4680BD80B584B0A9
:101DF00000AF0346B9607A60FB73F87B00230022D2
:101E00000021FFF757FB034618461037BD4680BD3B
:101E100080B584B000AF0346B9607A60FB73094BAC
:101E20009B681846FEF70CFD064B9B68002B01D003
:101E3000042200E00322034B1A70002318461037D7
:101E4000BD4680BD9805002080B584B000AF00235A
:101E50007B810220FFF73AFA194B1B68002B29D12E
:101E6000174B01221A60FEF7B1FC78607B6803F023
:101E70000403002B03D0FFF7FBFD03467B81002307
:101E8000FB6008E0FB68DBB279681846FFF770FB7F
:101E9000FB680133FB60FB68032BF3D97B6823F0FD
:101EA00001031846FEF79EFC054B00221A60022033
:101EB000FFF7F4F97B8918461037BD4680BD00BF97
:101EC0004C05002080B500AFFFF7BEFF00BF80BD0E
:101ED00081F0004102E000BF83F0004330B54FEADB
:101EE00041044FEA430594EA050F08BF90EA020F48
:101EF0001FBF54EA000C55EA020C7FEA645C7FEADB
:101F0000655C00F0E2804FEA5454D4EB5555B8BFFD
:101F10006D420CDD2C4480EA020281EA030382EA6E
:101F2000000083EA010180EA020281EA0303362D00
:101F300088BF30BD11F0004F4FEA01314FF4801CD3
:101F40004CEA113102D0404261EB410113F0004FE5
:101F50004FEA03334CEA133302D0524263EB43039C
:101F600094EA050F00F0A780A4F10104D5F1200E3A
:101F70000DDB02FA0EFC22FA05F2801841F1000195
:101F800003FA0EF2801843FA05F359410EE0A5F169
:101F900020050EF1200E012A03FA0EFC28BF4CF09A
:101FA000020C43FA05F3C01851EBE37101F0004550
:101FB00007D54FF0000EDCF1000C7EEB00006EEB5D
:101FC0000101B1F5801F1BD3B1F5001F0CD34908E7
:101FD0005FEA30004FEA3C0C04F101044FEA44523E
:101FE00012F5800F80F09A80BCF1004F08BF5FEAC5
:101FF000500C50F1000041EB045141EA050130BDA5
:102000005FEA4C0C404141EB010111F4801FA4F147
:102010000104E9D191F0000F04BF01460020B1FA9C
:1020200081F308BF2033A3F10B03B3F120020CDAD4
:102030000C3208DD02F1140CC2F10C0201FA0CF0B2
:1020400021FA02F10CE002F11402D8BFC2F1200C17
:1020500001FA02F120FA0CFCDCBF41EA0C019040CD
:10206000E41AA2BF01EB0451294330BD6FEA040416
:102070001F3C1CDA0C340EDC04F11404C4F1200201
:1020800020FA04F001FA02F340EA030021FA04F313
:1020900045EA030130BDC4F10C04C4F1200220FA6A
:1020A00002F001FA04F340EA0300294630BD21FAA8
:1020B00004F0294630BD94F0000F83F4801306BF6E
:1020C00081F480110134013D4EE77FEA645C18BF62
:1020D0007FEA655C29D094EA050F08BF90EA020FF9
:1020E00005D054EA000C04BF1946104630BD91EAF1
:1020F000030F1EBF0021002030BD5FEA545C05D1F4
:102100004000494128BF41F0004130BD14F5800432
:102110003CBF01F5801130BD01F0004545F0FE41A6
:1021200041F470014FF0000030BD7FEA645C1ABFDB
:10213000194610467FEA655C1CBF0B46024650EA12
:10214000013406BF52EA033591EA030F41F400213E
:1021500030BD00BF90F0000F04BF0021704730B5C4
:102160004FF4806404F132044FF000054FF0000199
:1021700050E700BF90F0000F04BF0021704730B55A
:102180004FF4806404F1320410F0004548BF40422F
:102190004FF000013EE700BF42004FEAE2014FEA84
:1021A00031014FEA02701FBF12F07F4393F07F4F5F
:1021B00081F06051704792F0000F14BF93F07F4F91
:1021C000704730B54FF4607401F0004521F00041D4
:1021D00020E700BF50EA010208BF704730B54FF05A
:1021E00000050AE050EA010208BF704730B511F05F
:1021F000004502D5404261EB41014FF4806404F197
:1022000032045FEA915C3FF4DCAE4FF003025FEA18
:10221000DC0C18BF03325FEADC0C18BF033202EBA0
:10222000DC02C2F1200300FA03FC20FA02F001FAFA
:1022300003FE40EA0E0021FA02F11444C1E600BF99
:102240004FEA410212F5001215D211D56FF47873DE
:10225000B3EB625212D94FEAC12343F0004343EA81
:10226000505311F0004F23FA02F018BF404270475C
:102270004FF00000704750EA013005D111F00040E6
:1022800008BF6FF0004070474FF00000704700BF7C
:10229000024B13B1024800F005B87047000000007F
:1022A000B1220008002301461A46184600F014B86F
:1022B00038B5074D074C2C1BA41005D0013C55F830
:1022C000043D9847002CF9D1BDE8384000F05CB8D7
:1022D00094040020900400202DE9F047254C064688
:1022E00025688846D5F8484192469946C4B3606847
:1022F0001F2817DC411C76B104EB8003C3F888A0CB
:10230000D4F88851012282401543022EC4F8885126
:10231000C3F808911ED0831C6160002044F823801C
:10232000BDE8F087144B03B34FF4C870AFF30080DF
:102330000446D0B1D5F84831002784E888003846F3
:10234000C5F848410121C4F88871C4F88C71002E89
:10235000E1D0D1E7D4F88C311A43C4F88C21DAE704
:1023600005F5A674C5F84841C1E74FF0FF30BDE858
:10237000F08700BF9823000800000000F8B500BFF8
:10238000F8BC08BC9E467047F8B500BFF8BC08BC56
:0C2390009E4670474300000060000020E3
:10239C001201100102000020830425F1000000004E
:1023AC000001000009024300020100803209040010
:1023BC0000010202010005240010010524010001A6
:1023CC0004240206052406000107058203200002EE
:1023DC0009040100020A0000000705810220000028
:1023EC00070503022000000000127A000000000024
:1023FC00000000004C030020B40300201C0400204B
:10240C0000000000000000000000000000000000C0
:10241C0000000000000000000000000000000000B0
:10242C0000000000942300080000000000000000E1
:10243C000000000000000000000000000000000090
:10244C000000000000000000000000000000000080
:10245C000000000000000000000000000000000070
:10246C000000000000000000000000000000000060
:10247C000000000000000000000000000000000050
:10248C000000000000000000000000000000000040
:10249C00000000000000000001000000000000002F
:1024AC000E33CDAB34126DE6ECDE05000B000000F4
:1024BC000000000000000000000000000000000010
:1024CC000000000000000000000000000000000000
:1024DC0000000000000000000000000000000000F0
:1024EC0000000000000000000000000000000000E0
:10281C00000000000000000091220008E500000804
:08282C00C100000800000000DB
:0400000508000000EF
:00000001FF
